:020000040800F2
:100000000000052065170008610800086308000863
:10001000650800086708000869080008000000007B
:100020000000000000000000000000006B08000855
:100030006D080008000000006F0800087108000843
:10004000B5170008B5170008B5170008B517000860
:10005000B5170008B5170008B5170008B517000850
:10006000B5170008B5170008B5170008B517000840
:10007000B5170008B5170008B5170008B517000830
:10008000B5170008B5170008B5170008B517000820
:10009000B5170008B5170008B5170008B517000810
:1000A000B5170008B5170008B5170008B517000800
:1000B000B5170008B5170008B5170008B5170008F0
:1000C000B5170008B5170008B5170008B5170008E0
:1000D000B5170008B5170008B5170008B5170008D0
:1000E000B5170008B5170008B5170008B5170008C0
:1000F000B5170008B5170008B5170008B5170008B0
:10010000B5170008B5170008B5170008B51700089F
:10011000B5170008B5170008B5170008B51700088F
:10012000B5170008B5170008B5170008B51700087F
:10013000B5170008B5170008B5170008B51700086F
:10014000B5170008B5170008B5170008B51700085F
:10015000B5170008B5170008B5170008B51700084F
:10016000B5170008B5170008B5170008B51700083F
:10017000B5170008B51700080000000000000000D7
:10018000B5170008B5170008B5170008B51700081F
:10019000B5170008B517000800000000B5170008E3
:1001A000B5170008B51700080000000000000000A7
:1001B000B51700080000000000000000B517000897
:1001C000B5170008B5170008B5170008B5170008DF
:0801D000B5170008B51700087F
:1001D8000348044B834202D0034B03B118477047CE
:1001E8000C0000200C000020000000000548064913
:1001F8000B1AD90F01EBA301491002D0034B03B12D
:10020800184770470C0000200C0000200000000078
:1002180010B5064C237843B9FFF7DAFF044B13B146
:100228000448AFF300800123237010BD0C000020A8
:1002380000000000B817000808B5044B1BB10449BA
:100248000448AFF30080BDE80840CFE70000000095
:1002580010000020B817000870B50D4E0D4D761B24
:10026800B61006D00024013455F8043B9847A6423E
:10027800F9D1094E094D761B01F09AFAB61006D04D
:100288000024013455F8043B9847A642F9D170BDC3
:10029800F0170008F0170008F4170008F017000816
:1002A800F0B4860746D0541E002A3CD0CAB2034692
:1002B80002E014F1FF3436D303F8012B9D07F8D17F
:1002C800032C29D9CDB245EA05250F2C45EA054569
:1002D80033D9A4F11006360903F1200707EB0617F6
:1002E80003F1100242E9045542E902551032BA42BC
:1002F800F8D1721C14F00C0F03EB021204F00F0675
:1003080013D0331F23F003030433134442F8045B70
:100318009342FBD106F003042CB1C9B21C4403F884
:10032800011B9C42FBD1F0BC704734461346002C9D
:10033800F3D1F8E714460346C2E71A462646E0E733
:1003480053B94AB9002908BF00281CBF4FF0FF3134
:100358004FF0FF3000F06EB9ADF1080C6DE904CE36
:1003680000F006F8DDF804E0DDE9022304B0704788
:100378002DE9F047089D04468C46002B40F0838009
:100388008A42174647D9B2FA82F242B1C2F1200036
:1003980024FA00F09140974040EA010C94404FEA5B
:1003A8001748230CBCFBF8F61FFA87FE08FB16C19A
:1003B80043EA014306FB0EF1994209D9FB1806F1FD
:1003C800FF3080F01981994240F21681023E3B4489
:1003D8005B1AA4B2B3FBF8F008FB103344EA0344F9
:1003E80000FB0EFEA64509D93C1900F1FF3380F049
:1003F8000581A64540F2028102383C4440EA0640A5
:10040800A4EB0E0400261DB1D4400023C5E9004327
:100418003146BDE8F08702B9FFDEB2FA82F2002A5F
:1004280050D1CB1B4FEA174E1FFA87F80126B3FBB2
:10043800FEFC210C0EFB1C3341EA034108FB0CF3C4
:100448008B4207D979180CF1FF3002D28B4200F2A7
:10045800E9808446C91AA3B2B1FBFEF00EFB101165
:1004680043EA014408FB00F8A04507D93C1900F10C
:10047800FF3302D2A04500F2D9801846A4EB080445
:1004880040EA0C40BFE78B4209D9002D00F0B1804B
:100498000026C5E9000130463146BDE8F087B3FAC9
:1004A80083F6002E4AD18B4202D3824200F2B880F2
:1004B800841A61EB030101208C46002DA8D0C5E900
:1004C800004CA5E7C2F1200320FA03F6974001FA91
:1004D80002F04FEA174ED9403043030CB1FBFEF649
:1004E8001FFA87F80EFB161143EA014306FB08F1D1
:1004F800994204FA02F409D9FB1806F1FF3C80F08E
:100508008D80994240F28A80023E3B445B1A81B258
:10051800B3FBFEF00EFB103341EA034100FB08F386
:100528008B4207D9791800F1FF3C73D28B4271D9FD
:1005380002383944CB1A40EA064678E7C6F1200C5F
:1005480003FA06F422FA0CF31C4320FA0CF701FA1A
:1005580006F34FEA144E21FA0CF11F433B0CB1FB92
:10056800FEF91FFA84F80EFB191143EA014109FB51
:1005780008FA8A4502FA06F200FA06F308D9611861
:1005880009F1FF3048D28A4546D9A9F10209214428
:10059800A1EB0A01BFB2B1FBFEF00EFB101147EA56
:1005A800014700FB08F8B84507D9E71900F1FF3102
:1005B8002ED2B8452CD90238274440EA0940A7EB87
:1005C8000807A0FB02894F45C64649461AD317D0EB
:1005D8005DB1B3EB0E0267EB010707FA0CFCF240C2
:1005E8004CEA0202F740C5E9002700263146BDE87B
:1005F800F0872E4628460BE70646E9E61846FDE64C
:100608004345E5D2B8EB020E69EB04010138DFE798
:100618000846D2E760468DE78146B9E7664675E742
:1006280030464AE7ACF1020C394413E702383C443F
:1006380024E700BF704700BF70B58AB00024059456
:10064800069407940894099401942A4B1A6B42F073
:1006580080021A631A6B02F080020192019A0294D6
:100668001A6B42F001021A631A6B02F0010202923D
:10067800029A03941A6B42F002021A631A6B02F090
:1006880002020392039A04941A6B42F004021A635A
:100698001B6B03F004030493049B174D22464FF48D
:1006A800E061284600F076FE0F23059306940126A4
:1006B800079605A9114800F089FD4FF4E0630593FA
:1006C80006960794089405A9284600F07FFD4FF484
:1006D800006605960694079405A9284600F076FD5D
:1006E80005960694079405A9054800F06FFD0AB021
:1006F80070BD00BF00380240000002400004024004
:100708000008024072B6FEE708B50B480B4B0360C1
:100718001023436000238360C36003614361037651
:1007280043768376C3760377437700F067F900B999
:1007380008BDFFF7E7FF00BF280000200068004061
:1007480008B50D480D4B03604FF4827343600023D6
:100758008360C360036143614FF400728261C361C7
:100768000362436283620A23C36200F0C7FE00B9D2
:1007780008BDFFF7C7FF00BF94000020003001400C
:1007880008B50A480A4B03604FF4E133436000237D
:100798008360C36003610C2242618361C36100F01E
:1007A800A3FF00B908BDFFF7ADFF00BF5000002050
:1007B8000014014000B595B03422002107A8FFF7C6
:1007C8006FFD00230293039304930593069300930C
:1007D800184A116C41F080511164126C02F0805279
:1007E8000092009A0193144A116841F44041116043
:1007F800126802F440420192019A012207924FF4D2
:10080800803208920D9307A800F0DAFA70B90F2326
:10081800029301230393002104910591069102A8F4
:1008280000F0F8F920B915B05DF804FBFFF76AFF8E
:10083800FFF768FF003802400070004008B500F07C
:1008480031FEFFF7B7FFFFF7F7FEFFF75DFFFFF792
:1008580077FFFFF795FFFEE7FEE7FEE7FEE7FEE717
:10086800FEE770477047704708B500F035FE08BDD1
:1008780082B0002100910B4B5A6C42F480425A64BA
:100888005A6C02F480420092009A01911A6C42F06C
:1008980080521A641B6C03F080530193019B02B0D1
:1008A800704700BF0038024000B589B000230393A9
:1008B80004930593069307930268164B9A4202D055
:1008C80009B05DF804FB0022019203F5E833196CC6
:1008D80041F080611964196C01F0806101910199FE
:1008E8000292196B41F0020119631B6B03F00203BA
:1008F8000293029B4FF440530393022304930592FF
:10090800032306930923079303A9034800F05EFC19
:10091800D6E700BF006800400004024000B589B077
:100928000023039304930593069307930268154BDA
:100938009A4202D009B05DF804FB0022019203F547
:100948008433596C41F480515964596C01F48051D5
:10095800019101990292196B41F0010119631B6B16
:1009680003F001030293029BE02303930223049301
:100978000592032306930523079303A9024800F071
:1009880025FCD7E7003001400000024000B589B0DF
:100998000023039304930593069307930268154B6A
:1009A8009A4202D009B05DF804FB0022019203F5D7
:1009B8009233596C41F020015964596C01F02001BF
:1009C800019101990292196B41F0040119631B6BA3
:1009D80003F004030293029BC023039302230493AE
:1009E8000592032306930823079303A9024800F0FE
:1009F800EDFBD7E70014014000080240002800F092
:100A0800A18038B5044690F82030D3B12268136825
:100A180043F00103136000F06BFD054623685A6834
:100A280012F0010F10D100F063FD401B0A28F5D920
:100A3800636A43F400336362052384F8203001209D
:100A480038BDFFF731FFE1E71A6822F002021A60A9
:100A580000F04EFD054623685A6812F0020F0DD0CB
:100A680000F046FD401B0A28F5D9636A43F40033B9
:100A78006362052384F820300120E1E7227E012A01
:100A88003DD01A6822F080021A60637E012B3BD0A9
:100A98002268136823F040031360A37E012B39D02A
:100AA8002268136823F020031360E37E012B37D0FC
:100AB8002268136843F010031360237F012B35D09D
:100AC8002268136823F008031360637F012B33D077
:100AD8002268136823F004031360A368E2681343D1
:100AE80022691343626913436268013A2168134318
:100AF800CB6100206062012384F82030A0E71A68E7
:100B080042F080021A60C0E72268136843F040038D
:100B18001360C2E72268136843F020031360C4E738
:100B28002268136823F010031360C6E7226813686D
:100B380043F008031360C8E72268136843F004030E
:100B48001360CAE701207047F8B52F4B9B6803F084
:100B58000C03042B53D0082B53D12B4B5A6802F0AB
:100B68003F025B6813F4800F28D0274B5B68C3F300
:100B7800881358010021C01A61F100018E0146EA6C
:100B8800906687013C1A66EB0105E90041EA547159
:100B9800E000C01841F100014B0243EAD05344027F
:100BA800204619460023FFF7CBFB174B5B68C3F3BE
:100BB800014301335B00B0FBF3F023E0124B5B68A9
:100BC800C3F388135C010025E41A65F10005AE0142
:100BD80046EA9466A701381B66EB0501CC0044EA97
:100BE8005074C500E81844F100018B0243EA9053A1
:100BF8008402204619460023FFF7A2FBD5E70348E5
:100C080000E00348F8BD00BF0038024000127A0037
:100C18000024F400002800F09B8070B50D460446BF
:100C28004F4B1B6803F007038B4208D2CBB24C4AE8
:100C38001370136803F007038B4240F08B8023681E
:100C480013F0020F17D013F0040F04D0454A93682D
:100C580043F4E0539360236813F0080F04D0414A2B
:100C6800936843F4604393603E4A936823F0F0032B
:100C7800A1680B439360236813F0010F32D06368B7
:100C8800012B21D09A1E012A25D9364A126812F062
:100C9800020F61D033498A6822F0030213438B6044
:100CA80000F026FC06462F4B9B6803F00C03626895
:100CB800B3EB820F16D000F01BFC801B41F2883387
:100CC8009842F0D9032042E0264A126812F4003F05
:100CD800E0D101203BE0234A126812F0007FD9D10D
:100CE800012034E01E4B1B6803F00703AB4207D911
:100CF800EAB21B4B1A701B6803F00703AB422DD1F5
:100D0800236813F0040F06D0164A936823F4E053BF
:100D1800E1680B439360236813F0080F07D0114A6A
:100D2800936823F46043216943EAC1039360FFF7A2
:100D38000BFF0C4B9B68C3F303130B4AD35CD840DF
:100D48000A4B18600A4B186800F086FB002070BD3B
:100D5800012070470120FAE70120F8E70120F6E7B3
:100D6800003C024000380240D0170008080000206C
:100D780004000020014B1868704700BF08000020DD
:100D880008B5FFF7F7FF044B9B68C3F38223034AB8
:100D9800D35CD84008BD00BF00380240E017000807
:100DA80008B5FFF7E7FF044B9B68C3F34233034AD8
:100DB800D35CD84008BD00BF00380240E0170008E7
:100DC800002800F0E88170B582B00446036813F08B
:100DD800010F3BD0A64B9B6803F00C03042B2CD0CF
:100DE800A34B9B6803F00C03082B21D06368B3F571
:100DF800803F4FD0B3F5A02F52D09D4B1A6822F4F4
:100E080080321A601A6822F480221A606368002B04
:100E180050D000F06DFB0546954B1B6813F4003F5E
:100E280014D100F065FB401B6428F5D90320B9E113
:100E38008F4B5B6813F4800FD8D08D4B1B6813F46D
:100E4800003F03D06368002B00F0A781236813F0EC
:100E5800020F54D0864B9B6813F00C0F3ED0844B86
:100E68009B6803F00C03082B33D0E368002B67D092
:100E7800804B01221A6000F03BFB05467C4B1B6847
:100E880013F0020F53D100F033FB401B0228F5D9B1
:100E9800032087E1764A136843F480331360B5E78B
:100EA800734B1A6842F480221A601A6842F480323E
:100EB8001A60ABE700F01CFB05466D4B1B6813F48A
:100EC800003FC3D000F014FB401B6428F5D9032071
:100ED80068E1674B5B6813F4800FC6D1644B1B68ED
:100EE80013F0020F03D0E368012B40F05881604AE9
:100EF800136823F0F803216943EAC10313602368E8
:100F080013F0080F40D0636963B35B4B01221A608A
:100F180000F0EEFA0546564B5B6F13F0020F33D123
:100F280000F0E6FA401B0228F5D903203AE1504ABE
:100F3800136823F0F803216943EAC1031360DEE76D
:100F48004C4B00221A6000F0D3FA0546484B1B6848
:100F580013F0020FD3D000F0CBFA401B0228F5D9CA
:100F680003201FE1444B00221A6000F0C1FA054635
:100F78003F4B5B6F13F0020F06D000F0B9FA401B2D
:100F88000228F5D903200DE1236813F0040F78D067
:100F9800374B1B6C13F0805F0DD100230193344B4A
:100FA8001A6C42F080521A641B6C03F08053019350
:100FB800019B012500E00025304B1B6813F4807F5E
:100FC80021D0A368012B32D0052B36D0284B1A6FBD
:100FD80022F001021A671A6F22F004021A67A36846
:100FE800002B34D000F084FA0646214B1B6F13F017
:100FF800020F45D100F07CFA801B41F288339842F9
:10100800F3D90320CEE01D4A136843F480731360BC
:1010180000F06EFA0646194B1B6813F4807FD0D196
:1010280000F066FA801B0228F5D90320BAE0104ABE
:10103800136F43F001031367D1E70D4B1A6F42F0AA
:1010480004021A671A6F42F001021A67C7E700F034
:101058004FFA0646064B1B6F13F0020F10D000F034
:1010680047FA801B41F288339842F3D9032099E06C
:101078000038024000004742800E4742007000409E
:10108800EDB9A369002B00F08C804E4A926802F0FB
:101098000C02082A54D0022B17D04B4B00221A609E
:1010A80000F026FA0446474B1B6813F0007F45D032
:1010B80000F01EFA001B0228F5D9032072E0414A0D
:1010C800136C23F080531364DBE73F4B00221A6054
:1010D80000F00EFA05463B4B1B6813F0007F06D064
:1010E80000F006FA401B0228F5D903205AE0E3690C
:1010F800226A1343626A43EA8213A26A5208013AD7
:1011080043EA0243E26A43EA0263226B43EA027358
:101118002C4A53602C4B01221A6000F0E9F904466E
:10112800284B1B6813F0007F06D100F0E1F9001B83
:101138000228F5D9032035E0002033E0002031E013
:10114800012B31D01F4B5B6803F48001E2699142A7
:101158002CD103F03F02216A8A4229D1616A47F6FD
:10116800C0721A40B2EB811F24D103F44031A26A45
:101178005208013AB1EB024F1ED103F07062E16AE6
:10118800B2EB016F1AD103F0E043226BB3EB027F9D
:1011980016D1002006E001207047012002E001205E
:1011A80000E0002002B070BD0120FBE70120F9E754
:1011B8000120F7E70120F5E70120F3E70120F1E737
:1011C8000120EFE7003802406000474200230F2B60
:1011D80000F2D780F0B482B05DE086685F00032437
:1011E800BC4026EA0406CC68BC40344384604668A8
:1011F80026EA02064C68C4F300129A403243426061
:1012080057E0DC08083450F8247003F00702960011
:101218000F22B24027EA02070A69B2403A4340F86F
:1012280024205AE0062200E00022B2403A43023469
:10123800544E46F82420544A1468EA4324EA050622
:101248004F6817F4803F01D045EA04064E4C2660EB
:10125800646802EA04064F6817F4003F01D045EAC3
:101268000406494C6660A46802EA04064F6817F44D
:10127800801F01D045EA0406434CA660E46822407A
:101288004E6816F4001F01D045EA04023E4CE260A5
:1012980001330F2B72D801229A400C6804EA020528
:1012A80032EA0404F4D14C6804F00304013C012C34
:1012B80093D94A6802F00302032A09D0C4685E0081
:1012C8000322B24024EA02048A68B2402243C26080
:1012D8004A6802F00302022A93D004685E000322DF
:1012E800B24024EA02044A6802F00302B2402243F0
:1012F80002604A6812F4403FCAD000220192234A91
:10130800546C44F480445464526C02F48042019258
:10131800019A9C08A61C1B4A52F8267003F0030287
:1013280096000F22B24027EA0207194A90423FF47A
:101338007BAF02F58062904216D002F5806290423F
:1013480014D002F58062904212D002F58062904279
:1013580010D002F5806290420ED002F58062904271
:101368003FF460AF072260E701225EE702225CE7F4
:1013780003225AE7042258E7052256E702B0F0BCD8
:101388007047704700380140003C01400038024077
:10139800000002400AB18161704709048161704709
:1013A800074AD36823F4E0631B041B0C000200F413
:1013B800E060034343F0BF6343F40033D3607047F6
:1013C80000ED00E030B4174BDB68C3F30223C3F130
:1013D8000704042C28BF04241D1D062D18D9033B1F
:1013E8004FF0FF3505FA04F421EA0401994005FAA3
:1013F80003F322EA0303194300280BDB0901C9B2EE
:1014080000F1604000F5614080F8001330BC70477F
:101418000023E5E700F00F000901C9B2024B195497
:10142800F4E700BF00ED00E014ED00E00138B0F192
:10143800807F0AD2064B5860064AF02182F82310B2
:101448000020986007221A6070470120704700BF8B
:1014580010E000E000ED00E010B504460E4B1878EF
:101468004FF47A73B3FBF0F30C4A1068B0FBF3F057
:10147800FFF7DCFF68B90F2C01D901200AE0002230
:1014880021464FF0FF30FFF79DFF054B1C60002001
:1014980000E0012010BD00BF00000020080000206F
:1014A8000400002008B50B4B1A6842F400721A6059
:1014B8001A6842F480621A601A6842F480721A60EC
:1014C8000320FFF76DFF0F20FFF7C6FFFFF7D0F9E6
:1014D800002008BD003C0240034A1168034B1B78FA
:1014E8000B441360704700BFEC0000200000002090
:1014F800014B1868704700BFEC00002000285AD044
:1015080010B50446436A33B94368B3F5827F05D002
:101518000023C36102E00023036143610023A36247
:1015280094F85130002B40D0022384F851302268BF
:10153800136823F040031360636803F48273A2689E
:1015480002F404421343E26802F40062134322697E
:1015580002F002021343626902F001021343A26916
:1015680002F400721343E26902F038021343226A5C
:1015780002F080021343A26A02F400522168134366
:101588000B60638B03F00403626A02F010022168A7
:1015980013434B602268D36923F40063D3610020AE
:1015A8006065012384F8513010BD84F8503020461E
:1015B800FFF7B4F9B8E701207047000070B504469A
:1015C8000268136923F44053C1680B4313618368AD
:1015D8000269134342691343C2691A430168CB681D
:1015E80023F4164323F00C031343CB6002685369BA
:1015F80023F4407381690B4353610368384A93426B
:101608000ED002F5806293420AD002F580629342BE
:1016180006D002F58062934202D0FFF7B1FB01E0E9
:10162800FFF7BEFBE369B3F5004F2AD00026051883
:1016380046EB06012D1846EB0101CB0043EA557332
:10164800EA001546194663689A009B0F281846EB6E
:101658000101FEF775FE234DA5FB003251096423F5
:1016680003FB11031B013233A5FB03235B0903F0C2
:10167800F00202EB011203F00F03216813448B60A0
:1016880070BD0026051846EB06012D1846EB010132
:10169800CB0043EA5573EA0015461946626833469B
:1016A800921846EB0303281846EB0101FEF748FEA3
:1016B8000C4DA5FB00325109642303FB1103DB0029
:1016C8003233A5FB03235B095A0002F4F87202EBDC
:1016D800011203F00703216813448B60D0E700BFB1
:1016E800001001401F85EB5158B310B5044690F81F
:1016F8003D300BB3242384F83D302268D36823F4AB
:101708000053D3602046FFF759FF2268136923F47A
:10171800904313612268536923F02A0353612268B6
:10172800D36843F40053D36000202064202384F856
:101738003D3084F83E3010BD80F83C30FFF726F984
:10174800D8E7012070470000034AD2F8883043F4F4
:101758007003C2F88830704700ED00E0DFF834D03D
:101768000D480E490E4A002302E0D458C4500433F1
:10177800C4188C42F9D30B4A0B4C002301E01360C8
:101788000432A242FBD3FFF7DFFFFEF765FDFFF748
:1017980055F8704700000520000000200C000020CC
:1017A800F81700080C000020F0000020FEE70000F9
:1017B800F8B500BFF8BC08BC9E467047F8B500BF36
:0817C800F8BC08BC9E46704706
:1017D00000000000000000000102030406070809E1
:0817E0000000000001020304F7
:0817E80090EBFF7F01000000FF
:0417F00041020008AA
:0417F40019020008CE
:0C17F80001000000100000000024F400BC
:040000050800176573
:00000001FF
